:020000040800F2
:10000000808F02208902000895F3000893020008FF
:10001000C3F30008C7F30008CBF30008000000009A
:10002000000000000000000000000000C101000806
:10003000CFF300080000000015020008D1F300080B
:10004000B3020008B3020008B3020008B3020008BC
:10005000B3020008B3020008B3020008B3020008AC
:10006000B3020008B3020008B3020008330A010813
:10007000F70901080B0A0108ED090108010A010846
:10008000E3090108D9090108B3020008B302000816
:10009000B3020008B3020008B3020008B30200086C
:1000A00019200108B3020008B3020008B3020008D7
:1000B000B3020008B3020008B3020008B30200084C
:1000C000B3020008B3020008B3020008B30200083C
:1000D000B3020008CD0C0108D70C0108E10C01089F
:1000E000B3020008B3020008B3020008B30200081C
:1000F000B3020008B3020008B3020008290A01088D
:10010000B3020008B3020008B3020008B3020008FB
:10011000EB0C0108FF0C0108B3020008B302000851
:10012000B30200081F0A0108CF090108B302000842
:10013000B3020008A9050108B3020008B3020008D1
:10014000B3020008B3020008B3020008B3020008BB
:10015000B3020008150A010841090108F50C01085D
:10016000B3020008B3020008B3020008B30200089B
:10017000B3020008B3020008B3020008B30200088B
:10018000B3020008B3020008051801080F1801089F
:10019000B3020008B3020008B3020008B30200086B
:1001A000B3020008B3020008B3020008DFF80CD065
:1001B00024F0FCFE0048004719120008808F02203E
:1001C000294B19680868B0E8F04F80F30988BFF33D
:1001D0006F8F4FF0000080F311887047000000001F
:1001E00006480068006880F3088862B661B6BFF30D
:1001F0004F8FBFF36F8F00DF00BF00BF08ED00E03F
:10020000DFF80C00016841F470010160704700BF25
:1002100088ED00E0EFF30980BFF36F8F124B1A688F
:100220001EF0100F08BF20ED108A20E9F04F10607B
:1002300008B44FF0500080F3118817F090F84FF099
:10024000000080F3118808BC19680868B0E8F04F16
:100250001EF0100F08BFB0EC108A80F30988BFF3BE
:100260006F8F704700BF00BF00220020EFF31180A6
:100270004FF0500181F31188704780F31188704767
:10028000EFF30580704700000A4880470A4800479E
:10029000FEE71EF0040F0CBFEFF30880EFF30980B8
:1002A0000FF079B8FEE7FEE7FEE7FEE7FEE7FEE7C0
:1002B000FEE7FEE7DD1E0208AD0100080246002051
:1002C000082A23D2DFE802F004080C1014181C1FBF
:1002D000FE4B1B680B601CE0FD4B1B680B6018E0BD
:1002E000FC4B1B680B6014E0FA4B1B680B6010E0C2
:1002F000F94B1B680B600CE0F84B1B680B6008E0C7
:1003000000230B6005E000230B6002E04FF0FF309C
:1003100000BF00BF704730B504460020082C2ED225
:10032000DFE804F004050D151D252E2F00BFEC4D50
:10033000AD690D600C25157001251D7024E0E94D97
:100340006D6B0D60012515700D251D701CE0E64DCF
:10035000AD690D60022515700E251D7014E0E34D8A
:10036000AD690D600225157001251D700CE0E04D92
:10037000AD690D600225157001251D7004E000BFF8
:1003800000BF4FF0FF3000BF00BF30BD10B5D948EF
:10039000C07C00F0010040B1D64890F8580000F051
:1003A000070010B9022006F07EFFD24890F85800EE
:1003B00000F01F0010B9012006F075FF10BD0021EC
:1003C00080F82810012229210A5400220263C26207
:1003D00049F6201242637047F0B5ADF5017D4FF448
:1003E000007101A824F0AEFA7E2201A9002009F0D4
:1003F00090FC0546E5B17C21BF4824F0A3FABF4834
:100400000068008800F4004070B1BC4800680078C3
:1004100000F0010040B12A46B9A102200EF030FFE1
:100420002946B7A00EF0EBFE28460DF5017DF0BD84
:1004300000277C24002605E001A8805D384487B2AF
:10044000701C86B2A642F7DB01A8015D01AA601C00
:10045000105C01EB0020B84215D0A8480068008865
:1004600000F4004040B1A5480068007800F00100A9
:1004700010B1AAA00EF0C3FE7C219F4824F062FABE
:100480006FF01100D1E7224601A99B4824F041FA00
:100490000220994908750120887223219648C1726B
:1004A000E321017307214173022181731A21C17372
:1004B0000021017400F138020C21012009F0E9FF4C
:1004C0008D4A683201210D200AF040F88A4A6C32C8
:1004D00002210E200AF00BF8874A74320221012013
:1004E0000AF063F88448406B10B96FF012009CE783
:1004F000814890F8280038B17F48C16A006B81427A
:1005000002D36FF0120090E700208EE710B504468A
:100510008A4807F021F9894806F00AFF714802F07D
:10052000C7FB874807F0ABF809F059F80BF0ECFE71
:1005300007F0ACFE0DF0EDFD07F08FFC814807F0F1
:1005400059F908F09FFCFFF721FF10BD7CB5002092
:10055000634988846349A1F8420063494884634938
:10056000C884634988851421774824F0EBF9142165
:100570007548143024F0E6F9002074490F237822DE
:10058000CDE90010062101200DF070F9044684B178
:100590005A480068008800F4004050B1574800688D
:1005A000007800F0010020B1214669A00EF027FE7E
:1005B0000446012065490F237822CDE90010062169
:1005C00007200DF053F9044684B14C4800680088B8
:1005D00000F4004050B149480068007800F0010084
:1005E00020B121466AA00EF00AFE044602205749B7
:1005F00013237822CDE9001001210D200DF036F9EA
:10060000044684B13D480068008800F4004050B1C1
:100610003A480068007800F0010020B121466C489B
:100620000EF0EDFD04460320484913237822CDE95E
:10063000001002210E200DF019F9044684B12F4854
:100640000068008800F4004050B12C480068007831
:1006500000F0010020B121465EA00EF0D0FD04465E
:100660000125FEE008232422294604200DF056FE31
:100670000446A4B121480068008800F40040002826
:100680000CD01E480068007800F00100002805D05A
:100690002A4621465FA00EF0B2FD0446DFE017486F
:1006A0000068008800F4004070B1144800680078C9
:1006B00000F0040040B111480068007900F020000B
:1006C0000E4909688978C1E0C9E000002C000020CB
:1006D0003000002024000020440000203C000020C6
:1006E000DC0E002038100020D81200204C1500200D
:1006F000D417002078000020C4230020F800002038
:10070000537973453250726F6D52656164282920A8
:100710006572722E72743A25642E00005379734507
:100720003250726F6D526561642829206368656379
:100730006B2073756D206572722E0000802800207A
:10074000E800002096280020242C002078180020A3
:10075000332D322053656E642073797347656E655F
:1007600072616C4D6F746F7242726F61646361731A
:100770007452656164282920746F2041726D4C2089
:100780006661696C65642C72743A25642E00000001
:10079000332D322053656E642073797347656E651F
:1007A00072616C4D6F746F7242726F6164636173DA
:1007B0007452656164282920746F2041726D522043
:1007C0006661696C65642C72743A25642E000000C1
:1007D00084610208332D322053656E64207379736F
:1007E00047656E6572616C4D6F746F7242726F61B6
:1007F000646361737452656164282920746F2048B2
:10080000656164206661696C65642C72743A256464
:100810002E000000477269707065723A53656E640D
:1008200020517565727920706B7420746F20477247
:100830006970706572206661696C65642C72743AC7
:1008400025642E69643A25642E00000001F0200121
:10085000084020B12946F6A00EF0D1FC0446681CE1
:10086000C5B2032DFFF6FEAE0520FB491523782205
:10087000CDE90010022101200CF0F8FF044684B1FC
:10088000F6480068008800F4004050B1F348006862
:10089000007800F0010020B12146F1A00EF0AFFC7D
:1008A00004467CBD10B5FE4890F8580000F00F00DB
:1008B00000285FD1FB4981F82E0007F08CFC04462C
:1008C000DCB9E6480068008800F40040A8B1E348BD
:1008D0000068007800F0100078B1E0480068808877
:1008E00000F4805048B1DD480068807800F0400096
:1008F00018B1EDA00EF083FC04460020F549887580
:1009000007F062FD0446002C18D0D4480068008827
:1009100000F4004000282DD0D0480068007800F096
:100920000100002826D02246EBA101200EF0A8FCF1
:100930002146E9A00EF063FC04461BE0C7480068AE
:10094000008800F40040A8B1C4480068007800F0B6
:10095000100078B1C1480068808800F4005048B1A8
:10096000BE480068807800F0800018B1E9A00EF061
:1009700046FC044610BD10B5C948806D1E21B0FB71
:10098000F1F201FB120000287CD1EF49C882084631
:10099000008A062877D2DFE800F003203D5A7996D6
:1009A00001200EF005F90446ACB1AC48006800889F
:1009B00000F4004080B1A9480068007800F0010010
:1009C00050B12246E1A102200EF05AFC2146DFA0E0
:1009D0000EF015FC00E000BF93E0012006F0CEFF12
:1009E0000446ACB19D480068008800F4004080B126
:1009F0009A480068007800F0010050B12246DDA15D
:100A000002200EF03DFC2146DAA00EF0F8FB00E0DB
:100A100000BF76E0012006F0BFFF0446ACB18F486E
:100A20000068008800F4004080B18C4800680078BD
:100A300000F0010050B12246D8A102200EF020FCA7
:100A40002146D6A00EF0DBFB00E000BF59E00120FC
:100A500006F0B0FF0446BCB180480068008800F48E
:100A6000004090B17D480068007800F0010060B15E
:100A70002246D6A102200EF003FC2146D3A00EF0A0
:100A8000BEFB02E03EE03BE000BF3AE0012006F0A2
:100A90009DFF0446ACB171480068008800F4004036
:100AA00080B16E480068007800F0010050B1224625
:100AB000D2A102200EF0E4FB2146D0A00EF09FFB55
:100AC00000E000BF1DE0012006F058FF0446ACB175
:100AD00062480068008800F4004080B15F48006808
:100AE000007800F0010050B12246D1A102200EF0A2
:100AF000C7FB2146CEA00EF082FB00E000BF00E065
:100B000000BF00BF10BD70B5002518E028460CF0EE
:100B100049FE04468CB151480068008800F400404A
:100B200058B14E480068007800F0010028B1224614
:100B30002946CCA00EF063FB0446681CC5B2032D09
:100B4000E4DD04200DF0A7FD044684B143480068AD
:100B5000008800F4004050B140480068007800F080
:100B6000010020B12146CEA00EF049FB044605202D
:100B70000CF018FE044684B138480068008800F480
:100B8000004050B135480068007800F0010020B105
:100B90002146D3A00EF033FB044670BD10B5DF49EB
:100BA00000200AF056FBDE4902200AF052FBDD4924
:100BB00003200AF04EFBDC4904200AF04AFBDB4923
:100BC00005200AF046FBDA4908200AF042FB10BD76
:100BD00010B5002002F0A5F9012002F0A2F90220D0
:100BE00002F09FF9032002F09CF9042002F099F929
:100BF000052002F096F910BD70B51848006800880D
:100C000000F40040002811D014480068008800F467
:100C1000806058B111480068007900F0200028B1C8
:100C20000E480068807800F0800083E196E10000C3
:100C3000477269707065723A53656E6420517565CC
:100C4000727920706B7420746F20282564292069C4
:100C50007320737563632E0078180020F80000205D
:100C6000332D322053656E642073797347656E654A
:100C700072616C4D6F746F7242726F616463617305
:100C80007452656164282920746F20576865656C0B
:100C9000206661696C65642C72743A25642E0000CC
:100CA00078000020B0280020726561642050736DC8
:100CB0002D313A53656E64517565727950534D53B9
:100CC0007461747573282920537563636573732E7B
:100CD00000000000E02800207265616420507375F8
:100CE0002D313A53656E6451756572794261747441
:100CF0006572794368617267657253746174757364
:100D00002829206661696C65642E72743A307825F2
:100D1000782E000072656164205073752D313A534E
:100D2000656E645175657279426174746572794358
:100D300068617267657253746174757328292053F2
:100D40007563636573732E00962800204D69632DCB
:100D5000312D312053656E64204D69635F50696E9B
:100D6000672829206661696C65642C72743A256471
:100D7000000000004D69632D312D322053656E64F3
:100D80002052657365745F4D696320706B742066D3
:100D900061696C65642C72743A2564004D69632D39
:100DA000312D332053656E64205365745F57616B3A
:100DB0006575705F4D696320706B74206661696C46
:100DC00065642C72743A2564000000004D69632D3F
:100DD000312D342053656E6420526561645F4D6926
:100DE000635F56657273696F6E20706B7420666105
:100DF000696C65642C72743A256400004D69632D3A
:100E0000312D352053656E6420526561645F4D69F4
:100E1000635F57616B6575705F416E676C652050ED
:100E20006B74206661696C65642C72743A25640089
:100E30004D69632D312D362052756E537461746582
:100E40002053656E642052657365745F4D6963203D
:100E5000706B74206661696C65642C72743A2564E9
:100E600000000000322D312073797347656E657282
:100E7000616C4D6F746F725265637644617461503A
:100E8000726F636573732825642920706B74206604
:100E900061696C65642C72743A25642E0000000050
:100EA000322D3120526563762073797350726F63EF
:100EB00065737344796E616D6978656C52656376AC
:100EC00064446174615061636B6574282920706BA0
:100ED00074206661696C65642C72743A2564000044
:100EE000322D3120526563762073797347656E65C4
:100EF00072616C4D6F746F72526563764461746198
:100F000050726F63657373282920706B742066615B
:100F1000696C65642C72743A25642E0028000020E8
:100F20002000002034000020400000203800002075
:100F30004800002090B1F248407D00F0070028B939
:100F4000EF48417DEFA00EF05AF907E0F348807BAF
:100F500020B1F248C189F2A00EF051F9F7480068BB
:100F6000008800F40040C8B1F4480068008800F42C
:100F7000806098B1F1480068007900F0200068B105
:100F8000EE480068408800F4807038B1EC48007D7D
:100F900020B1EB48017DEBA00EF031F9E748006885
:100FA000008800F4004000287ED0E44800680088F3
:100FB00000F480600028F7D0E0480068007900F075
:100FC00020000028F0D0DD480068807800F00F0095
:100FD00000287DD0002479E0C948005D00F00100C0
:100FE000A0B9D6480068008800F4004000286BD003
:100FF000D2480068007800F00100002864D0C048A2
:10100000025D2146D5A00EF0FAF85DE00C2C20DA46
:10101000CA480068807800F00100002854D004EB32
:10102000440000EBC400D64911F8100004EB440161
:1010300001EBC401D24A02EB4101497800EB0120E7
:1010400085B2002D40D02A46611CCEA00EF0D7F804
:101050003AE00C2C12D1B9480068807800F0040006
:1010600090B3CF480078CE49497800EB012085B293
:1010700055B32946CBA00EF0C2F825E00C2C23DD99
:10108000AE480068807800F00800E8B1A4F10D00D7
:1010900000EB400101EBC000C94911F81010A4F1A8
:1010A0000D0000EB400200E012E002EBC000C44A79
:1010B00002EB4000407801EB002085B225B12A46C2
:1010C000611CC0A00EF09BF8601CC4B20F2C83DB27
:1010D0009A480068008800F4004000283ED09748F5
:1010E0000068008800F48060C0B39448006800790C
:1010F00000F0200091490968897801F0100108404A
:1011000060B3002428E07E4904F10F00085C00F081
:10111000070038B904F10F000A5C611CB0A00EF0A2
:101120006EF817E004EB440000EBC400B54911F879
:10113000100004EB440101EBC401B24A02EB41018F
:10114000497800EB012085B225B12A46611CAEA08A
:101150000EF055F8601CC4B2022CD4DB774800684E
:10116000008800F4004028B374480068008800F448
:101170008060F8B171480068007900F020006F4984
:101180000968897801F02001084098B100240FE037
:101190005B4904F11100085C00F0070030B904F16C
:1011A00011000A5C611C9FA00EF029F8601CC4B2FB
:1011B000022CEDDB70BD10B5A3480078012805D1E5
:1011C000A1484069401CA049486105E09E4840692B
:1011D00010B100209C4948619B480078012818D133
:1011E00099484069B0F5C87F13D9002096494861F5
:1011F0004320088351480068008800F4004040B153
:101200004E480068007800F0010010B18FA00DF08A
:10121000F6FF18F08EFA10BD10B59EB00DF0D9FF94
:10122000002017F0A2FD002280210A2015F018F9F5
:101230009249086000221821122015F011F99049F6
:101240000860002240210A2015F00AF98D49086043
:1012500000225421122015F003F98B490860002266
:101260005021042015F0FCF8884908600022502124
:10127000042015F0F5F88649086000221821122094
:1012800015F0EEF88349086000221C21122015F0A9
:10129000E7F88149086000221E21042015F0E0F8DB
:1012A0007E49086000221C21122015F0D9F87C49E3
:1012B000086000221421082015F0D2F8794908604E
:1012C000002214210A2015F0CBF87749086000228B
:1012D0000C210A2015F0C4F874490860002210217E
:1012E000042015F0BDF87249086000201D9001210E
:1012F0001DA817F0C8F86F4908600024E6E0000058
:1013000078000020505355206F66666C696E652C1E
:10131000775073753A307825782E0000E028002049
:1013200042617474436861726765722053746174BA
:1013300075733A307825782E00000000F800002000
:101340008028002045776179494D5520436F6D6DA8
:10135000205374613A307825782E00004D6F746FF9
:10136000725B25645D206F66666C696E652C774DD7
:101370006F746F725B5D3A307825782E0000000044
:101380004C24002041726D5B25645D204572722003
:101390005374617475733A307825782E000000001C
:1013A0000427002053686F756C6465722045727263
:1013B000205374617475733A307825782E000000DC
:1013C0003C270020486561645B25645D204572729E
:1013D000205374617475733A307825782E000000BC
:1013E000576865656C204D6F746F725B25645D2076
:1013F0006F66666C696E2C774D6F3A3078253032A7
:101400007800000014280020576865656C5B25642F
:101410005D20457272205374617475733A3078257B
:10142000782E0000477269707065725B25645D20DC
:101430006F66666C696E652C774D6F746F725B5D5D
:101440003A307825782E0000A4220020504320480E
:1014500065617274426561742054696D656F75745D
:101460002C436C6F7365207468652054435020636F
:101470006F6E6E656374696F6E2E00001C00002035
:101480002000002024000020280000202C00002044
:101490003000002034000020380000203C000020F4
:1014A0004000002044000020480000204C000020A4
:1014B00050000020180000200020019001A816F024
:1014C0007CFFFD4941F82400601CC4B2062CF3DB0C
:1014D000002409E00020019001A816F06EFFF749F2
:1014E00041F82400601CC4B2062CF3DB00201C90E1
:1014F0001CA816F062FFF2490860002409E00020F1
:10150000019001A816F059FFEE4941F82400601C33
:10151000C4B2022CF3DB002409E00020019001A8F2
:1015200016F04BFFE84941F82400601CC4B2022CBD
:10153000F3DB002409E00020019001A816F03DFF34
:10154000E24941F82400601CC4B2022CF3DB002005
:101550001B901BA816F031FFDD4908601422DD49FD
:1015600016A823F0D6F9002116A816F00FFEDA49C6
:1015700008601422D749143111A823F0CAF90021B8
:1015800011A816F003FED54908601422D14928316C
:101590000CA823F0BEF900210CA816F0F7FDD049E5
:1015A00008601422CB493C3107A823F0B2F900218E
:1015B00007A816F0EBFDCB4908601422C54950314D
:1015C00002A823F0A6F9002102A816F0DFFDC64903
:1015D000086016F0C3FD00201EB010BD94B040217D
:1015E00004A823F0AFF9002642E20120BF490871A8
:1015F000002447E1BE4800EBC4000079002814DD58
:101600000220BA490871BA4800EBC40040790028AA
:101610000CDD03200871B64800EBC4004079401E81
:10162000C1B2B34800EBC400417129E10420AF49C5
:10163000087118E10520AD490871AD4901EBC401FD
:10164000C87903A90BF0F4FA00287DD10620A74938
:1016500008719DF80C00062807D19DF811200DF1A6
:10166000120110F04BF8002508E09DF811200DF153
:1016700012019DF80C000FF07DFE0546002D78D17B
:1016800007209A4908719B480068008800F40040D0
:10169000002859D097480068007800F0080000281A
:1016A000F7D094480068808800F480700028F0D05B
:1016B00090480068807800F0040098B194B99DF8D3
:1016C000100078B99DF818009DF81710CDE90010AA
:1016D0009DF816309DF815209DF8141086A00DF089
:1016E0008EFD054683480068807800F0010088B1CF
:1016F000012C0FD19DF8100060B99DF818000090E2
:101700009DF816309DF815209DF814108AA00DF054
:1017100076FD054677480068807800F0020088B1C1
:10172000022C0FD19DF8100060B99DF818000090B0
:101730009DF816309DF815209DF814108BA00DF023
:101740005EFD05466B4800E065E00068807800F0CB
:10175000200098B1032C11D19DF8100070B99DF8AC
:10176000180000909DF816309DF815209DF8141073
:1017700000E03AE08AA00DF042FD05465D480068B1
:10178000807800F0100088B1042C0FD19DF8100073
:1017900060B99DF8180000909DF816309DF815204E
:1017A0009DF814108BA00DF02AFD054651480068E5
:1017B000807800F0400028B94E480068807800F03A
:1017C000800040B3052C26D19DF8100018BB9DF871
:1017D000180000909DF816309DF815209DF8141003
:1017E00089A00DF00CFD054615E008203F49087161
:1017F00040480068008800F4004060B13D4800683F
:10180000007800F0010030B19DF80C10491C8BA04D
:101810000DF0F5FC05460920344908719DF81000CB
:1018200008B30A2008719DF80C0006280DD19DF818
:1018300010001E2802DD1E208DF810009DF81010EB
:101840002B4800EBC400417109E0294800EBC400BB
:101850008079401EC1B2264800EBC40041710B20C4
:10186000224908710BE0224951F8341000231A462E
:10187000086804A914F0BBFF01283FF4DBAE00BFE9
:10188000601CC4B2062CFFF6B5AE0C2017490871D7
:101890001748283890F86B00401CC1B2144828380B
:1018A00080F86B10022016F0B4FC06461EB11148F9
:1018B00000680088D0E0DBE094230020AC23002007
:1018C0005400002058000020600000206800002024
:1018D0007000002070590208100000200400002051
:1018E00014000020080000200000002040240020F8
:1018F000A0000020F8000020434F4D53656E642087
:10190000746F20434F4D322069443A307825782C4B
:101910004C656E3A25642C436F64653A30782578BF
:101920002C52656753746172743A307825782C5262
:1019300065674E3A25640000434F4D53656E642041
:10194000746F20434F4D332069443A307825782C0A
:101950004C656E3A25642C436F64653A307825787F
:101960002C5265674E3A25642E000000434F4D53BC
:10197000656E6420746F20434F4D342069443A30C3
:101980007825782C4C656E3A25642C436F64653A53
:10199000307825782C5265674E3A25642E00000079
:1019A000434F4D53656E6420746F20434F4D352077
:1019B00069443A307825782C4C656E3A25642C437E
:1019C0006F64653A307825782C5265674E3A256405
:1019D0002E000000434F4D53656E6420746F20430A
:1019E0004F4D362069443A307825782C4C656E3A54
:1019F00025642C436F64653A307825782C526567EE
:101A00004E3A25642E000000434F4D53656E64200E
:101A1000746F20434F4D372069443A307825782C35
:101A20004C656E3A25642C436F64653A30782578AE
:101A30002C5265674E3A25642E000000434F4D53EB
:101A4000656E6420746F20434F4D25642066616984
:101A50006C65642E0000000000F4004040B1F648C0
:101A60000068007800F0010010B1F4A00DF0C7FB91
:101A7000BBE570B5F74890F82600012875D1F54808
:101A8000808C002871DDF3480078012841D10121C4
:101A9000F148006816F097FC044634BBED481C3052
:101AA00017F015FE054685B1E3480068008800F48C
:101AB000004050B1E0480068007800F0010020B11B
:101AC0002946E6A00DF09BFB05460021E1488184F4
:101AD00080F826100146C8694FF47A7122F032FF6F
:101AE000DD48006816F09FFC3FE0D348006800889E
:101AF00000F40040002838D0CF480068007800F09B
:101B00000100002831D02146DEA00DF078FB05460B
:101B10002BE0D04890F8260038B30121CE48006869
:101B200016F051FC04467CB90021CA48818480F833
:101B300026100146C8694FF47A7122F003FFC648A7
:101B4000006816F070FC10E0BB480068008800F4E4
:101B5000004050B1B8480068007800F0010020B1A2
:101B60002146D3A00DF04BFB054670BD61E001207E
:101B7000DA49C8700023821E1946D948006814F05B
:101B800036FE012855D1B3480078012829D1B14843
:101B9000001D17F09CFD04460220D049C87094B186
:101BA000A5480068008800F4004060B1A2480068C1
:101BB000007800F0010030B1A64882892146C9A012
:101BC0000DF01DFB04460021A2488181817301466E
:101BD00048684FF47A7122F0B5FE0320BF49C870FF
:101BE00027E00420BD49C8709A48807B58B1052081
:101BF000C8700021974881818173014648684FF47D
:101C00007A7122F09FFE0620B449C8708A480068A5
:101C1000008800F4004060B187480068007800F058
:101C2000010030B1BCA240F2CB51C3A00DF0E7FAE5
:101C300004469CE717F0EAF945B215B1C9A00DF0CA
:101C4000DEFA17F011FD34E00120A44988700F205E
:101C500016F0DFFA044614B1C9A00DF0D0FA022044
:101C60009E4988700021CC480EF07FF917F032FAB7
:101C70000121C9480EF079F9032098498870754808
:101C8000283009F0A8FA042094498870FEF786FFEE
:101C9000FFF7EFFEFFF78FFA6E480069401C6D49B1
:101CA0000861BE4890F86A00401CC1B2BB4880F889
:101CB0006A10C9E7A2B00024642109A822F042FEFC
:101CC00006F061FC5C480068008800F4004078B1D0
:101CD000B248836DB2480268B2A109A823F0C4F9E2
:101CE00009A822F03AFE85B2294609A80FF0D2FAD7
:101CF0009CE001207949087007F048F802207749F4
:101D0000087003200870A6480068FEF7FFFB042057
:101D100072490870FEF75CFF0520704908700CF0EE
:101D200099F906206D4908700AF062F807206B499E
:101D300008709A48806D6421B0FBF1F201FB12003B
:101D400068BB44484069A349097A944A927D934B01
:101D50005B7DCDE90432CDE906109048007D8F49C6
:101D60008969C1F341428D498969C1F3C1318B4B06
:101D70001B8BC3F30E03CDE90031CDE902202E48C1
:101D8000006840882C4D2D682D8800EB0541834864
:101D9000C37C2948006842688F480DF030FA002063
:101DA0007E498861FEF7D2FB08204C490870FEF797
:101DB00079FD092049490870FEF7DDFD0A204749F1
:101DC00008700F2016F025FA044614B183A00DF018
:101DD00016FA0B2041490870FEF795FE0C203F498A
:101DE000087008F049F90D203C49087008F03BFAEA
:101DF0000E203A4908706948806D401C6749886523
:101E00000846806D7D490860644890F86C00401C6D
:101E1000C1B2624880F86C100F203049087016F08B
:101E2000F8F9044614B16DA00DF0E9F961E77448C2
:101E30005A49C86500207047F8000020332D312032
:101E40006F7344656C6179283229206661696C651D
:101E5000642E0000A42200207000002053797347F4
:101E6000656E6572616C54637053656E6444617431
:101E7000612829206661696C65642E72743A256454
:101E80002E000000362E3320476574204E657443C3
:101E90006F6D6D53656E644F7048616E646C652D37
:101EA00031206661696C65642E72743A25642E0077
:101EB000362E3320476574204E6574436F6D6D5325
:101EC000656E644F7048616E646C652D322066618A
:101ED000696C65642E72743A25642E0040240020DB
:101EE00018000020362E332053797347656E6572D3
:101EF000616C54637053656E644461746128292079
:101F00006661696C65642E72743A25642E644E7540
:101F10006D733A25642E00002E2E5C2E2E5C5573B8
:101F200065725C6170705C53797374656D5C6D6132
:101F3000696E2E6300000000362E3320544350207B
:101F40006973206E6F7420636F6E6E656374656471
:101F50002C6174206C696E6520256420696E2025D3
:101F6000732E0000362D31204C57495020436F6DA1
:101F70006D20496E6974206661696C65642E00008D
:101F8000362D31206F7344656C61792831352920F5
:101F90006661696C65642E004000010078000020D5
:101FA000381F00200D0A43793A25642C7379734356
:101FB0006E743A256420456D622053797374656DA3
:101FC0002073746172742072756E6E696E672E0D67
:101FD0000A000000D41700202C610208332D3120A4
:101FE0006F7344656C617928313529206661696CAD
:101FF00065642C72743A25642E0000007400002081
:1020000000001A12BEB080211EA822F09BFC6421A1
:1020100005A822F097FC642016F0FBF8FFF707FFF5
:1020200087480CF056FF05461DB186A00DF0E7F875
:102030001DE08348407900F00F00012817D18F4C34
:10204000A07961792279A378E67803EB0623CDE9BC
:102050000032CDE902108A48836D8A4802688AA15D
:1020600005A823F001F8984905A813F084FF98E02B
:1020700001209649487072480079022803DB00204D
:102080006F49087148710220904948706C48006897
:10209000C821B0FBF1F201FB120098B968480CF0BE
:1020A0005FFF054675B18A480068008800F400406B
:1020B00040B187480068007800F0010010B185A0A9
:1020C0000DF09DF80320814948702DE09DF87800BF
:1020D000002829DD5A48407900F00F00012823D15B
:1020E00079490DF1790013F046FF45B29DF878006B
:1020F000A84203D1022016F08CF815E05048007970
:10210000401C4F49087172480068008800F4004084
:1021100050B16F480068007800F0010020B1084617
:10212000017975A00DF06BF800231A461EA97A48B4
:10213000006814F05CFB0128C8D004206349487093
:102140003F48007800F00100C0B93D48407900F0F8
:102150000F00012812D10CF0B1FE054675B15C48A4
:102160000068008800F4004040B1594800680078D9
:1021700000F0010010B169A00DF041F805205349AD
:1021800048702F480068401C2D4908603C4890F872
:102190006D00401CC1B23A4880F86D10052016F061
:1021A00038F865E710B586B00020039004900590DC
:1021B00033486A300168039100798DF810000024DB
:1021C0000DE02F486A30015D401F005D814200DA5A
:1021D00007E000212A486A300155601CC4B2032C74
:1021E000EFDB00BF032C02DB0DF0ACF81DE09DF827
:1021F0000F009DF80E109DF80D20CDE900210290F2
:102200009DF80C30621C4EA100200DF039F89DF8AD
:102210000F009DF80E10CDE900109DF80D309DF8CF
:102220000C20611C46A00CF0EAFF06B010BD05E0D2
:102230004FF4FA7015F0EDFFFFF7B4FFF8E7000078
:1022400080180020312D30205374617274546173F2
:102250006B4C6F6750726F6328292D2D2D3E73795B
:1022600073456D624C6F6746696C65496E69742889
:1022700029206661696C65642E000000CE23002071
:1022800078000020381F00200D0A43793A25642C7D
:10229000737973436E743A256420456D62205379D7
:1022A0007374656D2073746172742072756E6E69DB
:1022B0006E672E446174653A25642D25642D25646E
:1022C0002C25642E00000000101D0020402400205A
:1022D000F8000020312D3120737973456D624C6F09
:1022E0006746696C65436865636B696E672829207A
:1022F0006661696C65642E00312D3220665F7075F1
:1023000074732829206661696C65642E6572724356
:102310006E743A25642E00001C000020312D3320FD
:10232000737973456D624C6F6746696C6553796E5E
:10233000632829206661696C65642E0A000000002C
:102340005379735461736B282564292052756E206C
:102350004177617921437572436E743A25642D2566
:10236000642D25642D25642E526573657420456D9A
:10237000622053797374656D206C617465722E00F0
:102380002DE9F84306460D461746701E00F0FF097A
:102390008648006809EB890101EB491100EBC10493
:1023A000122F03DD4FF0FF30BDE8F88394F82201CF
:1023B000102802DB6FF00200F6E794F8200100EB32
:1023C000C00004EB40083A462946404622F0A1FAF4
:1023D00004F590742078401C2070A078401CA070F8
:1023E0002078A4F59074102802DB002084F82001E6
:1023F0006F480068008800F4004040B36C480068F3
:10240000007800F0020010B369480068007900F01D
:102410000200E0B166480068807800F0010028B949
:1024200063480068807800F0020080B1A87AE97AF9
:1024300000EB01200090287A6A7A00EB02232878CA
:102440006A7800EB022132465AA00CF0D8FE002038
:10245000AAE72DE9F04F87B081460D4693469A468C
:1024600000260027142102A822F06CFAB9F5887F13
:1024700004D10627BB4500DA761E02E04FF0FF3696
:1024800000BF00BF1EB1304607B0BDE8F08F09F0B5
:10249000FF008DF808004FEA29208DF80900E8B206
:1024A0008DF80A00280A8DF80B00280C8DF80C0016
:1024B000280E8DF80D00002473E01AF80410601C3B
:1024C0001AF8000001EB00201FFA80F8B8F1010FA4
:1024D00002DBB8F10D0F02DBE019C4B261E00AEBD8
:1024E00004013A460DF10E0022F013FABA1DD3B2E0
:1024F000A8F1010291B22D4A106802AA08F084F8EE
:102500000646BEB12A480068008800F40040002852
:1025100045D027480068007800F0010000283ED030
:10252000324631A101200CF0ABFE31462EA00CF05A
:1025300066FE34E01E480068008800F4004070B376
:102540001B480068007800F0020040B3184800689B
:10255000007900F0020010B315480068807800F0A0
:10256000010028B912480068807800F00200B0B17C
:102570009DF812009DF8131000EB012000909DF8CB
:1025800010009DF8112000EB02239DF808009DF833
:10259000092000EB022142461E480CF030FEE019F3
:1025A000C4B25C4589DB00206EE70000DC0E002031
:1025B000F800002053746F726520746F2041726DB3
:1025C00020436D642C66436F64653A307825782C1F
:1025D00069643A25642C506F733A307825782C530F
:1025E00070643A307825780041726D7320675F53CC
:1025F000746F72655063436D64746F436D644275AC
:1026000066662829206661696C65642C72743A25B7
:10261000640000000C6202082DE9F04FA9B080466A
:102620000E46202121A822F08DF914211CA822F0A9
:1026300089F9202114A822F085F900201290139026
:1026400081460E90D8F804000B9086B94FF0010A2D
:10265000D8F800B0D8F804000B90FD48B0F82090EE
:102660004FF470600F90FA48C0680C901BE0012E88
:1026700014D14FF0070AD8F8000000F5DE6BD8F847
:10268000040018300B90F248B0F822904FF47040DC
:102690000F90EF48C06848300C9004E04FF0FF30D6
:1026A00029B0BDE8F08FEB48C07C00F001000028A5
:1026B00079D1002500242FE004EB44010C9810F898
:1026C0002100012826D19DF8760012A94855012045
:1026D00014A901F825000020012101EB850114AAAD
:1026E00050540DAA21460C9808F041F990B90D9864
:1026F00080B21090BDF84000022101EB850114AAC0
:102700005054BDF840000012032101EB85015054E4
:10271000681CC5B2601CC4B24C45CDDB98F80800FB
:10272000002845D1002D43DD14A804235622294654
:10273000CDE9000612A80BF00CF907469FB1C64878
:102740000068008800F40040002831D0C2480068CA
:10275000007800F0010000282AD03146BFA00CF01C
:102760004EFD074624E0BC480068008800F40040A5
:10277000F0B1B9480068007800F00400C0B1B64874
:102780000068007900F0200090B1B34800688078BC
:1027900000F0010028B9B0480068807800F002001D
:1027A00030B1314600E005E0BBA00CF028FD074643
:1027B000002075E700240CE004EB840000EB4410DB
:1027C0000BEBC00090F82201002800DD03E0601C44
:1027D000C4B24C45F0DB00BF4C4577DB9C48008A17
:1027E0000F99084000287DD09948007C0E900E98E3
:1027F0004B286ED1002425E0012021A901F82400F6
:102800000020012101EB840121AA5054AAF101000A
:10281000204400EB8000B04901EB8000407A0221A7
:1028200001EB84015054AAF10100204400EB800028
:10283000A94901EB8000807A032101EB8401505407
:10284000601CC4B24C45D7DB21A809F0FF0104236A
:102850005622CDE9000650460BF058F907468FB1D5
:102860007D480068008800F4004070B37A48006832
:10287000007800F0010040B3314698480CF0BFFCEE
:10288000074627E074480068008800F40040E0B183
:1028900071480068007800F00400B0B16E4800682C
:1028A000007900F0100080B16B480068807800F07B
:1028B000010028B968480068807800F0020020B163
:1028C000314687A00CF09BFC074603E00CE009E0D2
:1028D000FFE700BF5E48008A0F9988435C49088281
:1028E0000020DDE60020DBE65948007A00287DD193
:1028F000002500248AE004EB840000EB44100BEB7D
:10290000C00090F8220100287EDD04EB840101EB79
:1029100044110BEBC1001CA900F0DDFA0746002FA3
:1029200072D19DF8760012A948559DF87A009DF85D
:102930007B1000EB012000B211909DF878009DF80B
:10294000791000EB012080B2109011A910A80BF0B3
:1029500022FC0B9800EB8400D0ED000ABDF9440086
:1029600000EE100AB8EEC00A20EE800ADFED6C0A15
:1029700080EE201ABDEEC10A10EE100A00B21190CE
:10298000BDF8440014A901F82500BDF84400C0F3C7
:102990000720012101EB850114AA5054BDF8400025
:1029A000022101EB85015054BDF8400000120321C3
:1029B00001EB85015054681CC5B2BDF8402021468A
:1029C0000C9807F040FF24480068008800F400409D
:1029D00068B121480068008800F4806038B11E4862
:1029E0000068406800F0005008B101E03DE10BE0F4
:1029F00019480068807800F0010028B1BDF8402037
:102A0000611C48A00CF0FBFB601CC4B24C45FFF6F7
:102A100072AF002D1BDD14A8042356222946CDE9F0
:102A2000000612A80AF095FF07467FB10A48006821
:102A3000008800F40040002809D0074800680078AA
:102A400000F00100002802D031467FE083E0C6E0BC
:102A5000DC0E002078000020F8000020322E31200B
:102A600041726D282564294D6F762D30205043200A
:102A7000436F6D6D20646973636F6E6E656374651B
:102A8000642C73656E6420437572506F73206661A9
:102A9000696C65642E000000322E312041726D2871
:102AA0002564294D6F762D3020504320436F6D6D86
:102AB00020646973636F6E6E65637465642C7365FF
:102AC0006E6420437572506F7328307835362D341C
:102AD00029205375632E0000F82A00205062020856
:102AE000322E312041726D28256429204B65657096
:102AF00020506F7320436D642C20506F7369206DDC
:102B00006F64652C73656E642043757272506F73C9
:102B100028307835362D3429205375632E00000077
:102B20000000C8425265636F72642061726D4D6F20
:102B3000746F7228256429206C617374506F73431D
:102B40006D642C506F733A307825780048A00CF0F3
:102B500056FB074687E054480068008800F40040B0
:102B6000E8B351480068007800F00400B8B34E485C
:102B70000068007900F0100088B34B480068807846
:102B800000F0010028B948480068807800F0020091
:102B900028B32EB944480068807800F0010038B9A5
:102BA000012E60D140480068807800F00200B0B18A
:102BB0009DF864009DF8651000EB01209DF86610FB
:102BC0009DF8672001EB02219DF860209DF861309F
:102BD00002EB03229DF862309DF863C000E042E002
:102BE00003EB0C23CDE90732CDE909109DF85C0019
:102BF0009DF85D1000EB01209DF85E109DF85F20B0
:102C000001EB02219DF858209DF8593002EB032278
:102C10009DF85A309DF85BC003EB0C23CDE90332DD
:102C2000CDE905109DF854009DF8551000EB0120EA
:102C30009DF856109DF8572001EB02219DF8502079
:102C40009DF8513002EB0322CDE9002102909DF85E
:102C500052009DF8531000EB01232A4631461348D9
:102C60000CF0CDFA074600201AE5002018E5000018
:102C7000322E312041726D282564292053656E64FF
:102C800020506F73436D6420746F204D6F746F72AA
:102C90002042726F646373745772282920666169D9
:102CA0006C65642E00000000F800002094620208A9
:102CB00038B50446694602200DF062FB054635B979
:102CC000AE48407D9DF8001001EB400060756946FC
:102CD00001200DF055FB054635B9A848807D9DF8CB
:102CE000001001EB4000A075002038BD30B585B064
:102CF00004460025002002900390049014B9401E61
:102D000005B030BD20680290A088ADF80C0002200C
:102D100002A906232122CDE9001001210D200AF08D
:102D2000F5FE05462846EBE72DE9F04F85B007464E
:102D3000884691461C464FF0000A0026142168463A
:102D400021F000FEB7F5B07F05D0A7F2611040B1C9
:102D5000012812D10BE00A26B14501DA4FF0FF3A03
:102D60000EE00A26B14501DA4FF0FF3A08E00826E6
:102D7000B14501DA4FF0FF3A02E04FF0FF3A00BFF1
:102D800000BFBAF1000F03D0504605B0BDE8F08F88
:102D9000B7F5B17F51D12078617800EB01201FFA9F
:102DA00080FBBBF10D0F02D04FF0FF30EDE7A01C10
:102DB000FFF79CFF8246BAF1000F11D070480068FF
:102DC000008800F4004048B16D480068007800F0C9
:102DD000010018B16BA00CF012FA82465046D4E7FD
:102DE00067480068008800F4004020B36448006829
:102DF000007800F00400F0B161480068007900F04C
:102E00004000C0B15E480068807800F0040090B1D6
:102E1000A07994F807C000EB0C23207994F805C042
:102E200000EB0C22A07894F803C000EB0C215EA00C
:102E30000CF0E5F982460020A7E7F8B28DF8000013
:102E400038128DF8010008F0FF008DF802004FEAFB
:102E500018208DF803004FEA18408DF804004FEA5F
:102E600018608DF80500002531E0615D681C205C6C
:102E700001EB00201FFA80FBBBF10D0F02D0A81957
:102E8000C5B224E0611932460DF1060021F041FD82
:102E9000B11DCBB239496A460868002107F0B4FB7E
:102EA0008246BAF1000F10D035480068008800F45F
:102EB000004050B132480068007800F0010020B1B5
:102EC000524647A101200CF0DBF9A819C5B24D45C7
:102ED000CBDB002059E770B504460D4694F822017B
:102EE000002802DC4FF0FF3070BD94F8210100EBA8
:102EF000C00004EB40011222284621F00AFD04F232
:102F000021146078401E60702078401C207020786A
:102F1000A4F22114102802DB002084F821010020F3
:102F2000E2E770B504460025062C24D2DFE804F061
:102F3000080E0314191E114800F06EF805461BE038
:102F400000213148FFF768FB054615E001212E48B6
:102F5000FFF762FB05460FE02C4801F069FC0546CF
:102F60000AE02B4802F07EF8054605E0294803F008
:102F70006EF9054600E000BF00BF70BD38100020AC
:102F8000F8000020456D6253657453686F756C647A
:102F900065724D6F746F72506F73504944282920C9
:102FA0006661696C65642E00456D62536574536893
:102FB0006F756C6465724D6F746F72506F735049AA
:102FC0004420737563632E503A3078253034782C62
:102FD000493A253034782C443A253034782E000094
:102FE000736820675F53746F72655063436D6474D8
:102FF0006F436D64427566662829206661696C6559
:10300000642C72743A256400DC0E0020D812002073
:103010004C150020D41700202DE9F04F91B0044644
:1030200000200B90142106A821F08CFCD4F8049009
:10303000E0680290FE48C07C00F00100002843D107
:1030400001208DF81800022006A901235122CDE9A4
:10305000001019460D200AF059FD0546A5B1F548A6
:103060000068008800F40040002829D0F14800687A
:10307000007800F00100002822D078222946EEA036
:103080000CF0BDF805461BE0EA480068008800F433
:103090000040A8B1E7480068007800F0040078B16B
:1030A000E4480068007900F0200048B1E148006879
:1030B000807800F0040018B1EFA00CF0A0F80546ED
:1030C000002011B0BDE8F08F206890F822010028A0
:1030D0007ED1208A00F47F4000287AD094F810B086
:1030E000BBF14B0F76D1207A002856D101208DF804
:1030F000180000208DF819008DF81A008DF81B00BB
:10310000EA48D0F8FC000790022006A908235622BE
:10311000CDE9001001210D200AF0F8FC054695B11B
:10312000C4480068008800F4004000280AD0C14864
:103130000068007800F001000028F7D0DCA00CF057
:103140005EF80546BEE0BB480068008800F4004019
:103150000028F7D0B7480068007800F00400002885
:10316000F0D0B4480068007900F010000028E9D0E1
:10317000B0480068807800F004000028E2D09DF894
:103180001C0000909DF81D309DF81E209DF81F101A
:10319000D4480CF034F8054694E0207A0B2871D11D
:1031A00008208DF82C0001208DF82D008DF82E00C0
:1031B0003E20005D1030C1B23E200155002184F850
:1031C0003F10BDF82C00ADF818009DF82E0002E06D
:1031D000FEE17BE075E08DF81A0001200490D4F840
:1031E000308098F80F0098F8101000EB012098F844
:1031F000111000EB014098F8121000EB0166562008
:103200008DF81B0008208DF81C00BDF81000C0B21E
:103210008DF81D00BDF81000000A8DF81E0000207A
:103220008DF81F008DF82000F0B28DF82100300AD3
:103230008DF82200300C8DF82300300E8DF824001C
:10324000022306AA0D2108460AF08FFD0546D5B1D6
:1032500078480068008800F4004098B1754800681C
:10326000007800F0010068B14FF483732A469E494C
:1032700001200CF005F84FF4847229469A480BF0AF
:10328000BEFF05461EE06B480068008800F4004061
:10329000C0B168480068007800F0040090B165484B
:1032A0000068007900F0100060B162480068807822
:1032B00000F0040030B131468C480BF0A0FF054609
:1032C00000E000BF00208A490882FAE6607D00F035
:1032D000030020B1A07D00F0030000287ED128204B
:1032E000005D00287BD1207A78BB01208DF8180082
:1032F00000208DF819008DF81A008DF81B006B481E
:10330000D0F8FC000790022006A908235622CDE938
:10331000001001210D200AF0F9FB0546B5B1454822
:103320000068008800F4004000280DD04148006883
:10333000007800F001000028F7D04FF49A72294677
:103340006C480BF05CFF054640E12CE03948006812
:10335000008800F400400028F6D036480068007865
:1033600000F0040028B133480068007900F0100034
:1033700068B930480068008800F480600028E3D015
:103380002C480068406800F080500028DCD02948B4
:103390000068807800F004000028D5D056480BF073
:1033A0002EFF054612E1207A0B28CDD100208DF8A2
:1033B00018008DF81900022006A903465622CDE90F
:1033C000001001210D200AF0A1FB0546C5B11948E6
:1033D0000068008800F40040002801E0D2E0A7E087
:1033E000B2D014480068007800F001000028ABD08B
:1033F00040F24912294641480BF001FF0546E5E03D
:103400000C480068008800F4004000280FD00948EC
:103410000068007800F0040028B1064800680079D0
:1034200000F0100010B90348006869E074E07EE025
:1034300078000020F8000020322E312073684D6F94
:10344000762D3020504320436F6D6D206272656190
:103450006B2C73656E642028307835312D3129202E
:103460006661696C65642E72743A25642E6C696EAF
:10347000653A256400000000322E312073684D6FDC
:10348000762D3020504320436F6D6D206272656150
:103490006B2C73656E642028307835312D312920EE
:1034A000436D64205375632100000000F82A00205A
:1034B000322E31205368204B65657020506F732089
:1034C000436D642C20506F7369206D6F64652C739D
:1034D000656E6428307835362D3829206661696C30
:1034E00065642E0084640208F46702081063020811
:1034F00038100020D8650208F46302087C650208D1
:10350000008800F48060002860D0FE4800684068B1
:1035100000F08050002859D0FA480068807800F008
:103520000400002852D0F8480BF069FE05464DE033
:10353000F4480068008800F40040002846D0F148B4
:103540000068007800F0040028B1EE4800680079B7
:1035500000F0100058B9EB480068008800F4806063
:10356000A0B3E8480068406800F0805070B3E548B8
:103570000068807800F0040040B3E4A00BF03FFE48
:10358000054623E0EF4890F82800F8B10021ED4807
:1035900080F82810DB480068008800F40040A8B1DB
:1035A000D8480068008800F4806078B1D548006889
:1035B000406800F0805048B1D2480068807800F040
:1035C000040018B1E0A00BF01AFE0546002078E5D3
:1035D000206805900CAA0021059807F0BAF8054666
:1035E00015B16FF004006CE59DF830009DF83110C6
:1035F00000EB01201FFA80FABAF5B07F01D1002755
:1036000007E040F26110824501D10B2701E0002064
:1036100057E5207AB8422AD09FB908208DF82C00AF
:1036200001208DF82D008DF82E00C64890F83E0040
:103630001030C1B2C34880F83E10002180F83F101E
:1036400015E00B2F13D108208DF82C0001208DF8E8
:103650002D0000208DF82E00BA4890F83E00103062
:10366000C1B2B84880F83E100B2180F83F10607D51
:1036700000F0030000287DD0A07D00F003000028AA
:10368000F9D0B04890F82800F8B10021AD4880F892
:1036900028109C480068008800F40040A8B19948B0
:1036A0000068008800F4806078B19648006840683F
:1036B00000F0805048B193480068807800F0040022
:1036C00018B1AEA00BF09BFD05460B2F6CD19DF8F9
:1036D0003C009DF83D1000EB01209DF83E1000EBF2
:1036E00001409DF83F1000EB0160039003A80AF031
:1036F0009BFDD9ED000A9DED030AB8EEC00A20EE4D
:10370000800ADFEDAC0A80EE201ABDEEC10A10EE91
:10371000100A00B204900021029807F083F80220FA
:1037200000230090BDF910203946184607F044F9EF
:103730009DF82C00B8B3BDF82C00ADF818009DF82A
:103740002E008DF81A0056208DF81B0002208DF8EF
:103750001C00BDF81000C0B28DF81D00BDF81000AF
:10376000000A8DF81E00022306AA07210D200AF088
:10377000FCFA00E01DE20546BDB162480068008821
:1037800000F4004000280DD05E480068007800F08A
:1037900001000028F7D040F2CF12294686480BF0EE
:1037A0002EFD054603E223E067E0564800680088E6
:1037B00000F400400028F5D052480068007800F07E
:1037C00004000028EED04F480068007900F0100097
:1037D0000028E7D04B480068807800F004000028FB
:1037E000E0D0BDF9101075480BF009FD0546DEE18B
:1037F000022004A903465622CDE9001001210D2024
:103800000AF084F90546ADB13E480068008800F42E
:1038100000400028C6D03B480068007800F0010056
:103820000028BFD040F2E312294665A00BF0E7FC68
:103830000546BCE133480068008800F400400028D9
:10384000B0D030480068007800F004000028A9D00B
:103850002C480068007900F010000028A2D0294808
:103860000068807800F0040000289BD0BDF910109B
:1038700060A00BF0C4FC054699E1002F92D19DF8A1
:103880003C009DF83D1000EB01209DF83E1000EB40
:1038900001409DF83F1000EB0160039003A80AF07F
:1038A000C3FCD9ED000A9DED030AB8EEC00A20EE74
:1038B000800ADFED400A80EE201ABDEEC10A10EE4C
:1038C000100A00B204909DF838009DF8391000EB02
:1038D00001209DF83A1000EB01409DF83B1000EBF1
:1038E000016632460021029806F0ADFF0220334601
:1038F0000090BDF910203946002007F05DF89DF8D2
:103900002C0095E0F8000020A86302085368206EA0
:103910006F20436D642C55702F446E20746F756357
:103920006865642C73684C696D69742E6D4374729C
:103930006C2E656E3D312C646F206E6F7468696EFD
:1039400067210000381000205368206E6F20436DFF
:10395000642C55702F446E20646F6E27742062654E
:10396000207475636865642C436C722073684C69BD
:103970006D69742E656E2053756321005368204372
:103980006D6420213D302C55702F446E20646F6E85
:103990002774206265207475636865642C436C72BB
:1039A0002073684C696D69742E656E2053756321B0
:1039B000000000000000C842986702082065020865
:1039C000322E31205368204D6F746F7242726F64D3
:1039D000637374577228307835362D32292066612A
:1039E000696C65642E72743A25642E6C696E653A52
:1039F00025640000322E312053684D6F762D352C12
:103A00006E6F2055702D446E2050696E20746F7556
:103A1000636865642E73656E6428307835362D32A0
:103A200029205375632E5370643A307825782E0020
:103A3000D8B3BDF82C00ADF818009DF82E008DF815
:103A40001A0056208DF81B0008208DF81C00BDF8C8
:103A50001000C0B28DF81D00BDF81000000A8DF8EE
:103A60001E0000208DF81F008DF820000E98CDF864
:103A70002100022306AA0D2108460AF076F9054620
:103A8000A5B1FE480068008800F40040A8B3FB48D8
:103A90000068007800F0010078B340F21522294652
:103AA000F7480BF0ACFB054681E027E0F3480068DF
:103AB000008800F4004000B3F0480068007800F08F
:103AC0000400D0B1ED480068007900F01000A0B10A
:103AD000EA480068807800F0040070B19DF8210089
:103AE0009DF82210CDE900109DF823309DF8242088
:103AF000BDF91010E3480BF082FB58E0BDF8100050
:103B0000C0B28DF81800BDF81000000A8DF8190039
:103B100000208DF81A008DF81B000E9807900220E7
:103B200006A908235622CDE9001001210D2009F035
:103B3000EDFF054685B1D1480068008800F40040DB
:103B4000A8B3CE480068007800F0010078B3CEA09A
:103B50000BF055FB05462AE0C8480068008800F4D1
:103B6000004020B3C5480068007800F00400F0B1C0
:103B7000C2480068007900F01000C0B1BF4800687A
:103B8000807800F0040090B19DF81F0000069DF8B9
:103B90001E1000EB01409DF81D1000EB01209DF868
:103BA0001C104218BDF91010C4480BF028FB00206F
:103BB0000DE50B2F7ED19DF83C009DF83D1000EBEC
:103BC00001209DF83E1000EB01409DF83F1000EBF6
:103BD0000160039003A80AF027FBD9ED000A9DEDD0
:103BE000030AB8EEC00A20EE800A5FED8E0A80EE6E
:103BF000201ABDEEC10A10EE100A00B20490BDF901
:103C00001000002803DD607D00F0030040B1BDF925
:103C1000100000286FDAA07D00F0030000286AD1B0
:103C20000021029806F0FEFD022000230090BDF95D
:103C300010203946184606F0BFFE2820005D0128F6
:103C40001ED00121282001558C480068008800F40E
:103C50000040A8B189480068008800F4806078B10D
:103C600086480068406800F0805048B1834800688A
:103C7000807800F0040018B191A00BF0C0FA05465E
:103C8000BDF8100060859DF82C0098B3BDF82C009D
:103C9000ADF818009DF82E008DF81A0056208DF80A
:103CA0001B0002208DF81C00BDF81000C0B28DF87A
:103CB0001D0000E001E2BDF81000000A8DF81E00B2
:103CC000022306AA07210D200AF04FF80546C5B1C8
:103CD0006A480068008800F40040002810D0674857
:103CE0000068007800F001000028F7D040F272224E
:103CF000294601E028E069E081A00BF080FA054642
:103D000092E15E480068008800F400400028F7D087
:103D10005A480068007800F004000028F0D05748A6
:103D20000068007900F010000028E9D053480068CE
:103D3000807800F004000028E2D0BDF910107FA0C8
:103D40000BF05DFA05466FE1022004A903465622F6
:103D5000CDE9001001210D2009F0D8FE054695B1EE
:103D600046480068008800F400400028C8D0434856
:103D70000068007800F001000028C1D07DA00BF0A1
:103D80003EFA054650E13D480068008800F40040D6
:103D90000028B5D039480068007800F004000028F9
:103DA000AED036480068007900F010000028A7D097
:103DB00032480068807800F004000028A0D0BDF9E7
:103DC00010105EA00BF01BFA05462DE12820005DC7
:103DD000F0B100212820015528480068008800F42F
:103DE0000040A8B125480068008800F4806078B1E0
:103DF00022480068406800F0805048B11F480068C1
:103E0000807800F0040018B166A00BF0F8F90546C0
:103E10009DF82C0080B3BDF82C00ADF818009DF87B
:103E20002E008DF81A0056208DF81B0002208DF808
:103E30001C0000208DF81D008DF81E00022306AA2C
:103E400007210D2009F091FF0546B5B10B48006828
:103E5000008800F40040002894D0084800680078EA
:103E600000F0010000288DD040F2AD2229465D48C7
:103E70000BF0C5F90546B5E3D7E0B5E0F800002042
:103E80008866020844690208322E312053684D6F5B
:103E9000762D362C6E6F2055702D446E20746F7504
:103EA000636865642C73656E6428307835362D3808
:103EB00029206661696C65642E000000AC69020807
:103EC000322E312053684D6F762D372055702D449A
:103ED0006E20746F75636865642C7370656564200B
:103EE000697320617661696C61626C652C456E61F5
:103EF000626C652073684C696D69742E656E210073
:103F0000322E312053684D6F762D372055702D4459
:103F10006E20746F75636865642C73656E642830F9
:103F20007835362D3229206661696C65642E72748D
:103F30003A25642E6C696E653A256400322E312074
:103F400053684D6F762D372055702D446E20746F59
:103F500075636865642C73656E6428307835362D1A
:103F6000322920537563217370643A3078253034D8
:103F7000782E0000322E312053684D6F762D372079
:103F800055702D446E20746F75636865642C73657D
:103F90006E6428307835362D3229206661696C656B
:103FA000642E0000322E312053684D6F762D38205C
:103FB00055702D446E20746F75636865642C737042
:103FC0006565642069736E277420617661696C6130
:103FD000626C652C436C722073684C696D69742E39
:103FE000656E210034660208FE480068008800F40F
:103FF0000040002818D0FB480068007800F004005A
:104000000028F7D0F7480068007900F01000002879
:10401000F0D0F4480068807800F004000028E9D06F
:10402000F1480BF0ECF80546DCE200208DF81800B2
:104030008DF81900022006A903465622CDE900108A
:1040400001210D2009F062FD0546ADB1E54800688B
:10405000008800F400400028E6D0E24800680078BC
:1040600000F001000028DFD040F2C1222946DF48DD
:104070000BF0C5F80546B5E2DA480068008800F4A0
:1040800000400028D0D0D7480068007800F0040035
:104090000028C9D0D3480068007900F0100000283B
:1040A000C2D0D0480068807800F004000028BBD05F
:1040B000CFA00BF0A4F8054694E2002FB4D19DF8F0
:1040C00038009DF8391000EB01209DF83A1000EB04
:1040D00001409DF83B1000EB01669DF83C009DF807
:1040E0003D1000EB01209DF83E1000EB01409DF8D3
:1040F0003F1000EB0160039003A80AF095F8D9ED9A
:10410000000A9DED030AB8EEC00A20EE800ADFED3A
:10411000C70A80EE201ABDEEC10A10EE100A00B2E6
:104120000490C348D0F8FC00B04204DAC148407D96
:1041300000F0030050B1BE48D0F8FC00B0427BDD77
:10414000BC48807D00F00300002875D13246002174
:10415000029806F078FB022033460090BDF910204B
:104160003946002006F028FC2820005D02281ED0D9
:104170000221282001559B480068008800F4004077
:10418000A8B198480068008800F4806078B195482C
:104190000068406800F0805048B19248006880781C
:1041A00000F0040018B1A4A00BF029F80546BDF8F2
:1041B00010006085E6629DF82C00E0B3BDF82C008D
:1041C000ADF818009DF82E008DF81A0056208DF8D5
:1041D0001B0008208DF81C00BDF81000C0B28DF83F
:1041E0001D00BDF81000000A8DF81E0000208DF89B
:1041F0001F008DF82000CDF82160022306AA0D21B2
:10420000084609F0B2FD0546BDB176480068008851
:1042100000F4004000280DD072480068007800F0DB
:1042200001000028F7D040F20332294692480AF0F4
:10423000E6FF0546D6E124E073E06A48006800889E
:1042400000F400400028F5D066480068007800F0CF
:1042500004000028EED063480068007900F01000E8
:104260000028E7D05F480068807800F0040000284C
:10427000E0D03246BDF9101080480AF0C0FF054674
:10428000B0E1BDF81000C0B28DF81800BDF8100004
:10429000000A8DF8190000208DF81A008DF81B0017
:1042A0000796022006A908235622CDE90010012115
:1042B0000D2009F02BFC054685B14A4800680088AE
:1042C00000F4004050B147480068007800F0010059
:1042D00020B129466AA00AF092FF054641480068CD
:1042E000008800F4004000281AD03E48006800789A
:1042F00000F00400002813D03A480068007900F06C
:10430000100000280CD037480068807800F00400C6
:10431000002805D03246BDF9101069A00AF06FFFE1
:1043200060E12820005DF0B10021282001552D48D2
:104330000068008800F40040A8B12A48006800889E
:1043400000F4806078B127480068406800F0805031
:1043500048B124480068807800F0040018B167482C
:104360000AF04DFF05469DF82C00B8B3BDF82C00AF
:10437000ADF818009DF82E008DF81A0056208DF823
:104380001B0008208DF81C0001208DF81D00002066
:104390008DF81E008DF81F008DF820002448D0F8FD
:1043A000FC00CDF82100022306AA0D21084609F0E1
:1043B000DCFC05469DB10B480068008800F4004015
:1043C00070B108480068007800F0010040B140F288
:1043D000473229464A480AF012FF93E0B6E093E0DC
:1043E000D6E00000F800002060630208D4640208F0
:1043F000322E312053684D6F762D382075702D6424
:104400006E20746F75636865642C737064206D6FC3
:1044100064652073656E64207370643D3028307865
:1044200035362D3229205375632100000000C84223
:10443000F82A002038100020322E312053684D6FAA
:10444000762D392055702F446E20746F7563686522
:10445000642C506F736920697320617661696C61A7
:10446000626C652C456E61626C652073684C696D89
:1044700069742E656E210000E46602085468020823
:10448000322E312053684D6F762D39207379734762
:10449000656E6572616C4D6F746F7242726F6164AC
:1044A00063617374577269746528307835362920D2
:1044B0006661696C65642E72743A25642E00000092
:1044C000322E312053684D6F762D392C5570206F68
:1044D0007220446E20746F75636865642C73656E1A
:1044E0006428307835362D38292C7370643A30784A
:1044F00025782C506F733A30782578004064020894
:104500003867020805466DE038480068008800F406
:104510000040E8B335480068007800F00400B8B304
:1045200032480068007900F0100088B32F48006816
:10453000807800F0040058B32D48BDF91010D0F871
:10454000FC202C480AF05BFE05464BE001208DF86C
:10455000180000208DF819008DF81A008DF81B0046
:104560002348D0F8FC000790022006A90823562211
:10457000CDE9001001210D2009F0C8FA05468DB1E2
:104580001A480068008800F4004058B1174800E05D
:1045900028E00068007800F0010018B116A00AF0C9
:1045A0002EFE054611480068008800F40040C8B19E
:1045B0000E480068007800F0040098B10B480068CD
:1045C000007900F0100068B108480068807800F0B9
:1045D000040038B10648BDF91010D0F8FC20154889
:1045E0000AF00DFE0020FEF76CBD0000F800002070
:1045F000F82A0020A4680208322E312053684D6F3B
:10460000762D31302073797347656E6572616C4D1C
:104610006F746F7242726F61646361737457726911
:10462000746528307835362D3829206661696C65C7
:10463000642E0000006902082DE9F047054688460F
:104640001646A5F10E0000F0FF096B48006809EB63
:10465000890101EB491100EBC104122E03DD4FF07B
:10466000FF30BDE8F08794F82201102802DB6FF0DC
:104670000200F6E794F8200100EBC00004EB4007CD
:1046800032464146384620F044F904F590742078CB
:10469000401C2070A078401CA0702078A4F5907475
:1046A000102802DB002084F820010020D9E72DE942
:1046B000F04F87B080460D46934699464FF0000A6A
:1046C0000026142102A820F03DF9B8F5907F05D10D
:1046D0000626B34501DA4FF0FF3A02E04FF0FF3A09
:1046E00000BF00BFBAF1000F03D0504607B0BDE8CD
:1046F000F08F08F0FF008DF808004FEA28208DF8B1
:104700000900E8B28DF80A00280A8DF80B00280C81
:104710008DF80C00280E8DF80D00002467E019F8C4
:104720000410601C19F8000001EB002087B20E2F66
:1047300001DB102F02DBA019C4B258E009EB040121
:1047400032460DF10E0020F0E4F8B21DD3B2A7F10D
:104750000E0291B2284A106802AA05F055FF82465F
:10476000BAF1000F12D025480068008800F400401C
:1047700000283AD021480068007800F00100A0B37A
:1047800052461FA101200AF07BFD2EE01B48006865
:10479000008800F4004040B318480068007800F03A
:1047A000020010B315480068007900F00200E0B183
:1047B00012480068807800F00800B0B19DF812003F
:1047C0009DF8131000EB012000909DF810009DF85B
:1047D000112000EB02239DF808009DF8092000EB52
:1047E00002213A4611480AF00AFDA019C4B25C45FC
:1047F00095DB00207AE70000D8120020F8000020A6
:10480000686420675F53746F72655063436D6474AE
:104810006F436D64427566662829206661696C6520
:10482000642C72743A25642E00000000F0690208BE
:104830002DE9F04798B00646002015901690179085
:10484000142110A820F07EF8202108A820F07AF882
:10485000D6F80080D6F804A0FB48C07C00F0010028
:1048600000287CD10024002531E0F848C06805EB21
:10487000450110F82100012827D105F10E0006A9F5
:104880000855012008A901F824000020012101EBAE
:10489000840108AA5054ED4904AAC868294606F0C4
:1048A00066F890B9049880B20390BDF80C0002211C
:1048B00001EB840108AA5054BDF80C00001203213A
:1048C00001EB84015054601CC4B2681CC5B2022DB7
:1048D000CBDB307A00283ED1002C3CDD032008A938
:1048E00004235622CDE90010214606A809F031F82C
:1048F000074697B1D6480068008800F400400028B9
:1049000029D0D3480068007800F00100002822D0A8
:10491000D0A00AF074FC07461DE0CD48006800886E
:1049200000F40040B8B1CA480068007800F0040004
:1049300088B1C7480068007900F0200058B1C44829
:104940000068807800F0080028B100E007E0D1A0FE
:104950000AF055FC0746002018B0BDE8F087002596
:104960000CE005EB850000EB451008EBC00090F86B
:104970002201002800DD04E0681CC5B2308CA8428A
:10498000EFDC00BF308CA84269DC308A00F47F4045
:10499000002862D096F81090B9F14B0F59D1012040
:1049A0008DF8540000208DF85500C94890F80D018D
:1049B0008DF85600C64890F80E018DF8570001207A
:1049C0008DF8580000208DF85900C14890F8210159
:1049D0008DF85A00BE4890F822018DF85B00032044
:1049E00015A904235622CDE9001002210E2009F05A
:1049F0008DF8074687B196480068008800F40040AB
:104A000030B393480068007800F0010000B3B1486B
:104A10000AF0F5FB07461DE08D480068008800F4A9
:104A20000040A8B18A480068007800F0040078B11E
:104A300087480068007900F0100048B18448006899
:104A4000807800F0080018B1A3A00AF0D8FB074650
:104A500000E000BF002030827EE700207CE7307A53
:104A600000287CD10024002586E005EB850000EBC2
:104A7000451008EBC00090F8220100287ADD10AA4A
:104A80002946404605F065FE0746002F72D19DF885
:104A9000460006A908559DF84A009DF84B1000EB0A
:104AA000012000B205909DF848009DF8491000EBE8
:104AB000012080B2039005A903A809F06CFB0AEB62
:104AC0008500D0ED000ABDF9140000EE100AB8EE22
:104AD000C00A20EE800ADFED900A80EE201ABDEEBB
:104AE000C10A10EE100A00B20590BDF8140008A922
:104AF00001F82400BDF81400C0F30720012101EBE8
:104B0000840108AA5054BDF80C00022101EB840175
:104B10005054BDF80C000012032101EB84015054E5
:104B2000601CC4B24949BDF80C20C868294605F08C
:104B30008AFE47480068008800F4004080B144487D
:104B40000068008800F4806050B141480068406807
:104B500000F0005020B13E480068807801E011E18B
:104B600008E000F0080028B1BDF80C20691C6BA01B
:104B70000AF045FB681CC5B2308CA8423FF775AF00
:104B8000002C5EDD032008A904235622CDE9001085
:104B9000214606A808F0DDFE0746C7B12C4800688C
:104BA000008800F4004000284BD0294800680078B5
:104BB00000F00100002844D03A4662A101200AF02A
:104BC0005FFB39465FA00AF01AFB074639E0204830
:104BD0000068008800F4004098B31D480068007821
:104BE00000F0040068B31A480068007900F0100073
:104BF00038B317480068807800F0080008B39DF8C3
:104C000024009DF8251000EB01209DF826109DF84A
:104C1000272001EB02219DF820209DF8213002EB96
:104C20000322CDE9002102909DF822009DF8232067
:104C300000EB02239DF81810224651480AF0DFFAD3
:104C40000746002088E6000078000020D8120020E7
:104C5000F8000020322E312068644D6F762D302010
:104C6000504320436F6D6D20646973636F6E6E6592
:104C7000637465642C73656E642043757272506F43
:104C80007328307835362D3429206661696C656467
:104C90002E000000322E312068644D6F762D3020BA
:104CA000504320436F6D6D20646973636F6E6E6552
:104CB000637465642C73656E642043757272506F03
:104CC0007328307835362D3429205375632E000033
:104CD000F82A0020346A0208322E31204864204B22
:104CE00065657020506F7320436D642C20506F7386
:104CF00069206D6F64652C73656E642043757272F4
:104D0000506F7328307835362D3429207370643D08
:104D100030205375632E00000000C8425265636F57
:104D200072642048644D6F746F7228256429206C6A
:104D3000617374506F73436D642C506F733A3078A5
:104D400025780000322E3120486561642053656E5D
:104D50006420746F204D6F746F722042726F6463B1
:104D600073745772436D6428307835362D3429209A
:104D70006661696C65642E72743A25642E000000C9
:104D8000786A02080020E7E50246062A00D109B940
:104D90000020704708784B7800EB0320012805D1EC
:104DA000C8780B7900EB0320022801D00020F0E73F
:104DB00088784B79984201D00020EAE7887818B9C2
:104DC00000208E4B187202E016208C4B18720020C7
:104DD000DFE72DE9F04707460D464FF004094F4540
:104DE00002DA0020BDE8F08700243FE0295D601C66
:104DF000285C01EB002086B2012E01DB032E03DBD1
:104E000004EB0900C4B231E0A01C295CE01C285C62
:104E100001EB00201FFA80F8B8F5806F01DB40F24B
:104E2000FF38701E7549203121F8108074480068E1
:104E3000008800F40040B0B171480068007800F0CC
:104E4000020080B16E480068007900F0020050B1A5
:104E50006B480068807800F0200020B1424631465F
:104E600068A00AF0CCF904EB0900C4B2BC42BDDB77
:104E70000020B7E72DE9F04F87B005460E46934670
:104E80001F464FF00008C146142102A81FF05AFD2A
:104E9000B5F5A07F05D0A5F2431048B1012811D186
:104EA0000BE04FF00609CB4501DA4FF0FF380CE07C
:104EB00039465846FFF768FF07E039465846FFF77E
:104EC00088FF02E04FF0FF3800BF00BF40F2431000
:104ED000854202D0B5F5A27F03D1002007B0BDE81E
:104EE000F08FB8F1000F01D04046F7E7E8B28DF837
:104EF000080028128DF80900F0B28DF80A00300A77
:104F00008DF80B00300C8DF80C00300E8DF80D0074
:104F100000246FE0395D601C385C01EB00201FFA53
:104F200080FABAF1010F02DBBAF1030F03DB04EBE5
:104F30000900C4B25EE039194A460DF10E001FF0B7
:104F4000E8FC09F10602D3B2AAF1010291B22B4AA0
:104F5000106802AA05F058FB8046B8F1000F17D080
:104F600027480068008800F4004000283FD024480B
:104F70000068007800F00100002838D042462DA1DA
:104F800001200AF07DF941462AA00AF038F92EE006
:104F90001B480068008800F4004040B318480068CF
:104FA000007800F0020010B315480068007900F0A6
:104FB0000200E0B112480068807800F02000B0B133
:104FC0009DF812009DF8131000EB012000909DF851
:104FD00010009DF8112000EB02239DF808009DF8B9
:104FE000092000EB022152461D480AF008F904EBA3
:104FF0000900C4B25C458DDB00206FE74C15002032
:10500000F8000020477269702073657420546F7235
:10501000717565206C696D69742076616C756520A9
:105020007375632C69643A25642C6C696D69743AF4
:10503000256400004772697020675F53746F726562
:105040005063436D64746F436D64427566662829CE
:10505000206661696C65642C72743A25642E0000C8
:10506000C06A02082DE9F0472DED048B8CB006468E
:10507000142107A81FF066FC0020069003900490FE
:105080000590D6F800A09A48C07C00F0010028B92D
:1050900000200CB0BDEC048BBDE8F08700250CE0CF
:1050A00005EB850000EB45100AEBC00090F82201EB
:1050B000002800DD04E0681CC5B2B08CA842EFDC1B
:1050C00000BFB08CA84201DC0020E2E7307A08B1D2
:1050D0000020DEE7002400258AE005EB850000EBD8
:1050E00045100AEBC00090F8220100287DDD05EB99
:1050F000850101EB45110AEBC10007A9FDF7EBFEA5
:105100000746002F71D19DF8220006A908559DF889
:1051100024009DF8251000EB01201FFA80F9B9F555
:10512000805F00DB62E003A901F824904FEA2920A8
:10513000012101EB840103AA50549DF826009DF83B
:10514000271000EB01201FFA80F840461FF00BFDEE
:1051500041EC190B9FED670B53EC102B1FF083FCF8
:1051600041EC180B1FF02BFD1FFA80F86348006814
:10517000008800F4004010B360480068007800F038
:105180000400E0B15D480068007900F01000B0B1A3
:105190005A480068807800F0200080B19DF8260011
:1051A0009DF827C000EB0C239DF824009DF825C036
:1051B00000EB0C229DF8221051A00AF020F8B8F163
:1051C000000F02D0B8F5806F01DB4FF02C080221F0
:1051D00001EB840103AA02F801804FEA2820032191
:1051E00001EB84015054601CC4B200BF681CC5B2FE
:1051F000B08CA8423FF771AF002C76DD03A8CDE953
:1052000000409DF8183004221E21104609F0DDF8F8
:105210000746C7B139480068008800F400400028FC
:1052200063D036480068007800F0010000285CD0A8
:105230003A463DA101200AF023F839463AA009F088
:10524000DEFF074651E02D480068008800F400406A
:1052500028B32A480068007800F00400F8B1274815
:105260000068007900F01000C8B124480068807818
:1052700000F0200098B1012C12D19DF80E009DF88D
:105280000FC000EB0C239DF80C009DF80DC000EB47
:105290000C229DF818102EA009F0B1FF074624E05B
:1052A000022C22D19DF812009DF8131000EB012072
:1052B0009DF810109DF8112001EB02219DF8192096
:1052C000CDE9002102909DF80E009DF80FC000EB83
:1052D0000C239DF80C009DF80DC000EB0C229DF8EE
:1052E0001810274809F08BFF07460020D1E6000080
:1052F00078000020CDCCCCCCCCCC2640F8000020CF
:10530000536E6420746F204772697070657228252F
:10531000642920506F733A307825782C5370643AA2
:10532000307825782E0000004772697070657253DE
:105330006E6453796E6357726974652829206661BB
:10534000696C65642E72743A307825782E000000FE
:1053500047726970706572536E6453796E635772E9
:105360006974652C6964303A307825782C506F73F5
:105370003A307825782C5370643A307825782E00AE
:10538000046B020870B500240025082324220121A3
:10539000042008F0C3FF044608232422022104202D
:1053A00008F0BCFF05460CB1204670BD0DB1284683
:1053B000FBE70020F9E72DE9F0412DED048B0546D0
:1053C0000F4605B12FB96FF00600BDEC048BBDE8A8
:1053D000F081002491E04B4800EBC40080784949FB
:1053E00001EBC401C97800EB01201FFA80F828F412
:1053F00080601FF0A7FB9FED440B53EC102B1FF0B8
:10540000C0FA1FF0BDFB06B2601CC1B2C4EB0410B1
:105410000A302954601C0112C4EB04100B302954CB
:10542000384810F83410C4EB04100C3029543548B7
:1054300000EBC4004178C4EB04100D302954C4EBD8
:1054400004100E302E54C6F30721C4EB04100F30A5
:1054500029542F48406904EB440101EBC40110F8C2
:105460001110C4EB0410103029540021C4EB0410B7
:1054700011302954274904F11100085C00F007009D
:1054800050B9C4EB04101230285C40F00101C4EBA9
:1054900004101230295404E00021C4EB041012302F
:1054A00029540021C4EB041013302954154800EB93
:1054B000C4008179C4EB0410143029540021C4EBDA
:1054C0000410153029540F4800EBC4000179C4EBD7
:1054D0000410163029540B4800EBC4004179C4EB8A
:1054E000041017302954074800EBC400C179C4EBFD
:1054F000041018302954601CC4B2022CFFF66BAFA4
:10550000002062E74C2C0020000000000000264034
:105510004C150020780000202DE9F0438DB00546A1
:1055200088460026B146202105A81FF00BFA00206E
:10553000039004901DB9401E0DB0BDE8F083002417
:1055400022E0295D601C285C01EB002087B2012F5E
:1055500001DB032F03DB04F10800C4B214E006EB07
:10556000460005A901EB40002919D1F8022002608C
:10557000C988818003A98F55701CC6B2052E00DD35
:1055800004E004F10800C4B24445DADB00BF0520A2
:1055900005A906232122CDE90010314603A808F011
:1055A000D8F981464846C7E72DE9F84306460C4638
:1055B0001746701E00F0FF09BC48006809EB89011E
:1055C00001EB491100EBC105122F03DD4FF0FF3055
:1055D000BDE8F88395F82201102802DB6FF0020085
:1055E000F6E795F8200100EBC00005EB40083A46CD
:1055F000214640461FF08DF905F590752878401C2E
:105600002870A878401CA8702878A5F590751028F7
:1056100002DB002085F82001A5480068008800F41E
:10562000004000283AD0A2480068007800F002004C
:10563000002833D09E480068007900F0020000285E
:105640002CD09B480068807800F01000002825D0FE
:105650000A2F0CD1207A627A00EB0223207862783C
:1056600000EB0221324693A009F0C9FD16E0207B31
:10567000617B00EB01200090207A627A00EB02202F
:10568000A27A00EB0240E27A00EB026320786278B3
:1056900000EB0221324692A009F0B1FD002097E70D
:1056A0002DE9F04F87B08046894617461C464FF0DB
:1056B000000A0026142102A81FF044F9B8F5987FCB
:1056C00005D0A8F2311040B1012812D10BE0082614
:1056D000B74201DA4FF0FF3A0EE00426B74201DA92
:1056E0004FF0FF3A08E00826B74201DA4FF0FF3AE0
:1056F00002E04FF0FF3A00BF00BFBAF1000F03D045
:10570000504607B0BDE8F08FB8F5997F46D13946CD
:105710002046FFF701FF8246BAF1000F11D064481E
:105720000068008800F4004048B1614800680078D3
:1057300000F0010018B177A009F061FD82465046E3
:10574000DFE75B480068008800F4004020B3584859
:105750000068007800F00400F0B155480068007956
:1057600000F04000C0B152480068807800F00400AA
:1057700090B1A07994F807C000EB0C23207994F83D
:1057800005C000EB0C22A07894F803C000EB0C21BC
:1057900069A009F034FD82460020B2E708F0FF005E
:1057A0008DF808004FEA28208DF8090009F0FF0065
:1057B0008DF80A004FEA19208DF80B004FEA1940C6
:1057C0008DF80C004FEA19608DF80D00002566E099
:1057D000615D681C205C01EB00201FFA80FBBBF1BF
:1057E000010F02DBBBF1030F02DBA819C5B256E0C3
:1057F000611932460DF10E001FF08BF8B21DD3B2C5
:10580000ABF1010291B2294A106802AA04F0FCFE31
:105810008246BAF1000F11D025480068008800F4D4
:105820000040D0B322480068007800F00100A0B327
:1058300052464EA1012009F023FD2EE01C480068CD
:10584000008800F4004040B319480068007800F078
:10585000020010B316480068007900F00200E0B1C1
:1058600013480068807800F01000B0B19DF8120075
:105870009DF8131000EB012000909DF810009DF89A
:10588000112000EB02239DF808009DF8092000EB91
:1058900002215A46404809F0B2FCA819C5B2BD42DF
:1058A00096DB00202DE7014600207047D41700202A
:1058B000F800002053746F7265746F576865656CEB
:1058C000436D642C66436F64653A307825782C69A3
:1058D000643A25642C5370643A30782578000000CF
:1058E00053746F7265746F576865656C436D642C93
:1058F00066436F64653A307825782C69643A25648C
:105900002C506F733A307825782C5370643A307885
:1059100025780000456D62536574576865656C4D68
:105920006F746F72506F7350494428292066616903
:105930006C65642E00000000456D62536574576805
:1059400065656C4D6F746F72506F7350494420736E
:105950007563632E503A3078253034782C493A25D7
:105960003034782C443A253034782E0057686565F9
:105970006C20675F53746F72655063436D64746F1E
:10598000436D64427566662829206661696C6564AA
:105990002C72743A25642E00506B02082DE9F04FEA
:1059A0008BB082460D46002700200A900024099003
:1059B0008346142104A81EF0C5FF002003906888C8
:1059C00008B1287818B900200BB0BDE8F08F05F1B8
:1059D000320305F124020AA909A802F0E2F80746F9
:1059E000002F69D19DF82410E9759DF928102976BA
:1059F0000120A8759DF82400302822D19DF92800A7
:105A0000002803DBA87800F00F0038B99DF92800C2
:105A1000002813DAA87800F0300078B14FF0010BBD
:105A20009DF92800002804DBA87800F00F00A8806A
:105A300047E0A87800F03000A88042E04FF0020B69
:105A40003FE09DF8240000F0F000202831D19DF8BF
:105A50002400212803D1A87800F00F0038B99DF860
:105A60002400222813D1A87800F0300078B14FF03C
:105A7000010B9DF82400212804D1A87800F00F0024
:105A8000A8801EE0A87800F03000A88019E09DF8FA
:105A9000240020280AD1A87800F03F0030B14FF050
:105AA000010BA87800F03F00A8800AE04FF0020B3D
:105AB00007E04FF0020B04E00021E9752976002091
:105AC000A875BBF1010F71D19AF8080000286ED1BA
:105AD000002444E0601C03A9085504EB440101EBD9
